:100000000C942C080C9473080C9473080C947308CB
:100010000C9473080C9473080C9473080C94730874
:100020000C9473080C9473080C9419220C94EC2211
:100030000C948D190C9473080C9473080C94730829
:100040000C9473080C9473080C9473080C94730844
:100050000C9473080C94F5190C9473080C947308A1
:100060000C9473080C9473080C9473080C94730824
:100070000C9473080C9473080C9473080C94730814
:100080000C9473080C9473080C9473080C94730804
:100090000C9473080C9473080C9473080C947308F4
:1000A0000C9473080C9473080C94730829001100C5
:1000B00046001D000600050019001B004500000059
:1000C0006300440043004200620000002B0018005F
:1000D00014001A0015001C0017000800E10024009D
:1000E000E500390021002300220020001F000B0042
:1000F00000000400070048000900160056005800E0
:100100005B0057005400550059005A006700360044
:100110005E00610060005F005C005D004F00000059
:1001200051005000E7002C00E20000004E001000DB
:1001300052002C003800360037001E000A003D0037
:10014000AD00E0003A003C003B00350049002500CE
:100150004C002A002D00260027002E004B000D0029
:100160002C00280033000E000F00340000706500E2
:10017000470041003F0000003E0040004D000C00E1
:100180004A0031002F00120013003000010001006E
:100190000100010001000100010001000100000058
:1001A0000100010001000100010000000100010048
:1001B0000100010001000100010001000100010037
:1001C0000100010001000100010001000100010027
:1001D0000000010001000100010001000100010018
:1001E0000100010001000100010001000100010007
:1001F00001000100010001000100010001000000F8
:1002000001000100010001000100000001000100E7
:1002100001000100010001000100010001000100D6
:1002200001000100010001000100010001000100C6
:1002300001000100010001000100010001000100B6
:1002400001000100010001000100010001000100A6
:100250000100010001000100010001000100010096
:100260000100010001000100010001000100010086
:100270000100010001000100010001000100000077
:100280000100010001000100010000000100010067
:100290000100010001000100010001000100010056
:1002A0000100010001000100010001000100010046
:1002B0000000010001000100010001000100010037
:1002C0000100010001000100010001000100010026
:1002D0000100010001000100010001000100000017
:1002E0000100010001000100010000000100010007
:1002F00001000100010001000100010001000100F6
:1003000001000100010001000100010001000100E5
:1003100001000100010001000100010001000100D5
:1003200001000100010001000100010001000100C5
:1003300001000100010001000100010001000100B5
:1003400001000100010001000100010001000100A5
:100350000100010001000100010001000100000096
:100360000100010001000100010000000100010086
:100370000100010001000100010001000100010075
:100380000100010001000100010001000100010065
:100390000000010001000100010001000100010056
:1003A0000100010001000100010001000100010045
:1003B0000100010001000100010001000100000036
:1003C0000100010001000100010000000100010026
:1003D0000100010001000100010001000100010015
:1003E0000100010001000100010001000100010005
:1003F00001000100010001000100010001000100F5
:1004000001000100010001000100010001000100E4
:1004100001000100010001000100010001000100D4
:1004200001000100010001000100010001000100C4
:1004300001000100010001000100010001000000B5
:1004400001000100010001000100000001000100A5
:100450000100010001000100010001000100010094
:100460000100010001000100010001000100010084
:100470000000010001000100010001000100010075
:100480000100010001000100010001000100010064
:100490000100010001000100010001000100000055
:1004A0000100010001000100010000000100010045
:1004B0000100010001000100010001000100010034
:1004C0000100010001000100010001000100010024
:1004D0000100010001000100010001000100010014
:1004E0000100010001000100010001000100010004
:1004F00001000100010001000100010001000100F4
:1005000001000100010001000100010001000100E3
:1005100001000100010001000100010001000000D4
:1005200001000100010001000100000001000100C4
:1005300001000100010001000100010001000100B3
:1005400001000100010001000100010001000100A3
:100550000000010001000100010001000100010094
:100560000100010001000100010001000100010083
:100570000100010001000100010001000100000074
:100580000100010001000100010000000100010064
:100590000100010001000100010001000100010053
:1005A0000100010001000100010001000100010043
:1005B0000100010001000100010001000100010033
:1005C0000100010001000100010001000100010023
:1005D0000100010001000100010001000100010013
:1005E0000100010001000100010001000100010003
:1005F00001000100010001000100010001000000F4
:1006000001000100010001000100000001000100E3
:1006100001000100010001000100010001000100D2
:1006200001000100010001000100010001000100C2
:1006300000000100010001000100010001000100B3
:1006400001000100010001000100010001000100A2
:100650000100010001000100010001000100000093
:100660000100010001000100010000000100010083
:100670000100010001000100010001000100010072
:100680000100010001000100010001000100010062
:100690000100010001000100010001000100010052
:1006A0000100010001000100010001000100010042
:1006B0000100010001000100010001000100010032
:1006C0000100010001000100010001000100010022
:1006D0000100010001000100010001000100000013
:1006E0000100010001000100010000000100010003
:1006F00001000100010001000100010001000100F2
:1007000001000100010001000100010001000100E1
:1007100000000100010001000100010001000100D2
:1007200001000100010001000100010001000100C1
:1007300001000100010001000100010001000000B2
:1007400001000100010001000100000001000100A2
:100750000100010001000100010001000100010091
:100760000100010001000100010001000100010081
:100770000100010001000100010001000100010071
:100780000100010001000100010001000100010061
:100790000100010001000100010001000100010051
:1007A0000100010001000100010001000100010041
:1007B0000100010001000100010001000100000032
:1007C0000100010001000100010000000100010022
:1007D0000100010001000100010001000100010011
:1007E0000100010001000100010001000100010001
:1007F00000000100010001000100010001000100F2
:1008000001000100010001000100010001000100E0
:1008100001000100010001000100010001000000D1
:1008200001000100010001000100000001000100C1
:1008300001000100010001000100010001000100B0
:1008400001000100010001000100010001000100A0
:100850000100010001000100010001000100010090
:100860000100010001000100010001000100010080
:100870000100010001000100010001000100010070
:100880000100010001000100010001000100010060
:100890000100010001000100010001000100000051
:1008A0000100010001000100010000000100010041
:1008B0000100010001000100010001000100010030
:1008C0000100010001000100010001000100010020
:1008D0000000010001000100010001000100010011
:1008E0000100010001000100010001000100010000
:1008F00001000100010001000100010001000000F1
:1009000001000100010001000100000001000100E0
:1009100001000100010001000100010001000100CF
:1009200001000100010001000100010001000100BF
:1009300001000100010001000100010001000100AF
:10094000010001000100010001000100010001009F
:10095000010001000100010001000100010001008F
:10096000010001000100010001000100010001007F
:100970000100010001000100010001000100000070
:100980000100010001000100010000000100010060
:10099000010001000100010001000100010001004F
:1009A000010001000100010001000100010001003F
:1009B0000000010001000100010001000100010030
:1009C000010001000100010001000100010001001F
:1009D0000100010001000100010001000100000010
:1009E0000100010001000100010000000100010000
:1009F00001000100010001000100010001000100EF
:100A000001000100010001000100010001000100DE
:100A100001000100010001000100010001000100CE
:100A200001000100010001000100010001000100BE
:100A300001000100010001000100010001000100AE
:100A4000010001000100010001000100010001009E
:100A5000010001000100010001000100010000008F
:100A6000010001000100010001000000010001007F
:100A7000010001000100010001000100010001006E
:100A8000010001000100010001000100010001005E
:100A9000000001000100010001000100010001004F
:100AA000010001000100010001000100010001003E
:100AB000010001000100010001000100010000002F
:100AC000010001000100010001000000010001001F
:100AD000010001000100010001000100010001000E
:100AE00001000100010001000100010001000100FE
:100AF00001000100010001000100010001000100EE
:100B000001000100010001000100010001000100DD
:100B100001000100010001000100010001000100CD
:100B200001000100010001000100010001000100BD
:100B300001000100010001000100010001000000AE
:100B4000010001000100010001000000010001009E
:100B5000010001000100010001000100010001008D
:100B6000010001000100010001000100010001007D
:100B7000000001000100010001000100010001006E
:100B8000010001000100010001000100010001005D
:100B9000010001000100010001000100010000004E
:100BA000010001000100010001000000010001003E
:100BB000010001000100010001000100010001002D
:100BC000010001000100010001000100010001001D
:100BD000010001000100010001000100010001000D
:100BE00001000100010001000100010001000100FD
:100BF00001000100010001000100010001000100ED
:100C000001000100010001000100010001000100DC
:100C100001000100010001000100010001000000CD
:100C200001000100010001000100000001000100BD
:100C300001000100010001000100010001000100AC
:100C4000010001000100010001000100010001009C
:100C5000000001000100010001000100010001008D
:100C6000010001000100010001000100010001007C
:100C7000010001000100010001000100010000006D
:100C8000010001000100010001000000010001005D
:100C9000010001000100010001000100010001004C
:100CA000010001000100010001000100010001003C
:100CB000010001000100010001000100010001002C
:100CC000010001000100010001000100010001001C
:100CD000010001000100010001000100010001000C
:100CE00001000100010001000100010001000100FC
:100CF00001000100010001000100010001000000ED
:100D000001000100010001000100000001000100DC
:100D100001000100010001000100010001000100CB
:100D200001000100010001000100010001000100BB
:100D300000000100010001000100010001000100AC
:100D4000010001000100010001000100010001009B
:100D5000010001000100010001000100010000008C
:100D6000010001000100010001000000010001007C
:100D7000010001000100010001000100010001006B
:100D8000010001000100010001000100010001005B
:100D9000010001000100010001000100010001004B
:100DA000010001000100010001000100010001003B
:100DB000010001000100010001000100010001002B
:100DC000010001000100010001000100010001001B
:100DD000010001000100010001000100010000000C
:100DE00001000100010001000100000001000100FC
:100DF00001000100010001000100010001000100EB
:100E000001000100010001000100010001000100DA
:100E100000000100010001000100010001000100CB
:100E200001000100010001000100010001000100BA
:100E300001000100010001000100010001000000AB
:100E4000010001000100010001000000010001009B
:100E5000010001000100010001000100010001008A
:100E6000010001000100010001000100010001007A
:100E7000010001000100010001000100010001006A
:100E8000010001000100010001000100010001005A
:100E9000010001000100010001000100010001004A
:100EA00001000100010001000100010012036B00BC
:100EB0006500790062006F0061007200640000004C
:100EC000160371006D006B006200750069006C0014
:100ED00064006500720000000403090409026D004B
:100EE000040100A0FA090400000103010100092126
:100EF000110100012240000705810308000A0904CE
:100F000001000103010200092111010001224D002D
:100F10000705820308000A0904020001030000001B
:100F20000921110100012236000705830308000A88
:100F3000090403000103000000092111010001223E
:100F40003900070584032000011201100100000090
:100F500008EDFE606001000102000105010906A123
:100F600001050719E029E71500250195087501819C
:100F7000020508190129059505750191029501756C
:100F80000391010507190029F71500250195F8754A
:100F9000018102C005010980A10185021601002618
:100FA00003001A81002A8300751095018100C00595
:100FB0000C0901A1018503160100269C021A0100FB
:100FC0002A9C02751095018100C005010902A1014A
:100FD0000901A1000509190129051500250195053B
:100FE00075018102950175038101050109300931FF
:100FF0001581257F95027508810609381581257FA1
:10100000950175088106050C0A38021581257F9522
:101010000175088106C0C005010906A1010507196F
:10102000E029E715002501950875018102950175F4
:101030000881010508190129059505750191029599
:1010400001750391010507190029FF150026FF000E
:10105000950675088100C00011241FBECFEFDAE0AD
:10106000DEBFCDBF04B603FE27C080917002909111
:101070007102A0917202B09173028730904BA74029
:10108000B04BD1F410927002109271021092720261
:101090001092730214BE84B7877F84BF0FB6F89492
:1010A000A895809160008861809360001092600034
:1010B0000FBEE0E0F8E3099511E0A0E0B1E0E0E662
:1010C000FCE402C005900D92AE33B107D9F722E0DF
:1010D000AEE3B1E001C01D92A037B207E1F70E9474
:1010E000681F0C942E260C94000090E080E0089578
:1010F0000895089581E0089581FF03C0569A5E988F
:1011000008955698FCCF81E008950C947A080E94C7
:1011100007122FEF84E39CE0215080409040E1F7DC
:1011200000C000000C941A1AFF920F931F93CF93E4
:10113000DF938C01FC01C081D181809184018111F8
:101140003FC082818823B9F1CE010E946E17F82E2C
:10115000682FCE010E941417BE018F2D0E94DB095B
:10116000EC01B8010E948508882309F44AC0B8013F
:10117000CE010E94EC0B882309F443C0C531F0E78F
:10118000DF0718F5C23080E7D80708F04BC0C1155B
:10119000E0E7DE0789F1C130D047D1F181E08093EB
:1011A000400180934101C801DF91CF911F910F91C0
:1011B000FF900C948308CE010E944317F82ECCCFE9
:1011C000CE010E946E17BE01C9CFCC3380E7D8078D
:1011D00009F4ACC0CD33D04709F7F80182818823E8
:1011E00009F4CBC0109241010E94BF1990933F01B6
:1011F00080933E0180E2A7C0F801828181110E94A4
:10120000870880E0DF91CF911F910F91FF900895A3
:10121000F80182818823A9F3809130028160809354
:101220003002EFCFF8018281882309F4BCCF0E94FD
:101230001F19811102C00E9405190E943C1990E0FB
:101240009093620280936102FE01E350F047809127
:1012500061028160E231F105C8F4EF5CF64F0C9455
:10126000DE2543094F09530957095B095F096309E3
:1012700067096B096F09730977097B097F0983097E
:1012800087098B098F0980916102826080936102D6
:10129000809161020E9440190E940712B2CF809192
:1012A00061028460F3CF809161028860EFCF80910A
:1012B00061028061EBCF809161028062E7CF809113
:1012C00061028064E3CF809161028068DFCF80910A
:1012D00061028460EACF809161028E7FD7CF8091D6
:1012E00061028D7FD3CF809161028B7FCFCF8091C0
:1012F0006102877FCBCF809161028F7EC7CF8091C3
:1013000061028F7DC3CF809161028F7BBFCF8091BF
:1013100061028F77BBCF809161028B7FEACF909182
:101320006102892F97FB87F98058B0CFF80182813D
:10133000882361F0109240010E94BF1990933F01F1
:1013400080933E0182E00E94910F5BCF809140012B
:1013500081110FC080913E0190913F010E94CB19F5
:10136000883C910530F486E20E94660E86E20E9477
:10137000420F82E00E94980F44CF80914101811179
:101380000FC080913E0190913F010E94CB19883C93
:10139000910530F487E20E94660E87E20E94420FB8
:1013A00080E2E8CF0C943B0C0C943D0C0C947C0830
:1013B0000C94D6090895E72FF0E09EE0899FE00D98
:1013C000F11D112483E0EE0FFF1F8A95E1F7E60F70
:1013D000F11DEE0FFF1FE455FF4F85919491089585
:1013E000FC01EE0FFF1FE455F14F85919491089594
:1013F0000E94DB090E946B0B811520E4920708F024
:101400008DC0811540E3940708F0E8C0803E910547
:1014100008F071C0803C910508F0CCC0883A910575
:1014200080F4853A910508F0CAC08130910509F42D
:101430006EC020F08430910508F069C090E080E033
:1014400008958D3B9105D0F7883A910509F404C1C0
:10145000893A910509F403C18A3A910509F402C158
:101460008B3A910509F401C18C3A910509F400C148
:101470008B3B910509F4FFC08C3B910509F4FEC03C
:101480008D3A910509F4FDC0803B910509F4FCC03B
:101490008E3A910509F4FBC08F3A910509F4FAC020
:1014A000813B910509F4F9C0823B910509F4F8C02C
:1014B000833B910509F4F7C0843B910509F4F6C01C
:1014C000853B910509F4F5C0863B910509F4F4C00C
:1014D000873B910509F4F3C0883B910509F4F2C0FC
:1014E000893B910509F4F1C08A3B910509F4F0C0EC
:1014F00080E094E408958F3F910509F048F4803F1F
:10150000910508F067C0883E910508F097CF0895CF
:10151000811520E2920708F05FC00895811543E528
:10152000940760F5811522E5920708F062C08115E5
:1015300041E5940708F058C0811520E5920708F4AA
:1015400050C09C0154E0369527955A95E1F7922FAB
:101550009370482F437021E030E002C0220F331F08
:101560004A95E2F73C68392B86958695837040E270
:10157000849FC0011124822B932B0895811545E58A
:10158000940750F4811524E5920708F446C0982F7B
:101590008827846F906A0895811546E5940708F4BA
:1015A00050C09C0130569F702115304108F046CF45
:1015B00090620895805C91090E94F0090895853A2F
:1015C000910509F443C0863A910509F042C082E8CA
:1015D00090E40895906508959F70EECF9927906CE0
:1015E00008959F70906A0895982F8827816F906A58
:1015F0000895AC014370552721E030E002C0220F6E
:10160000331F4A95E2F78695869540E2849FC00194
:101610001124822B932B9C680895AC0143705527AD
:1016200021E030E002C0220F331F4A95E2F7869591
:10163000869540E2849FC0011124822B932B9A68E7
:101640000895982F882788279F71B2CF81E890E46A
:10165000089583E890E4089582EE94E4089589EE75
:1016600094E408958AEE94E4089585EB94E4089553
:1016700086EB94E4089583EB94E4089584EB94E47A
:10168000089587EB94E408958CEC94E408958DEC30
:1016900094E4089583E895E408958AE895E408952C
:1016A00082E995E4089584E995E4089581E296E459
:1016B000089583E296E4089584E296E4089585E22D
:1016C00096E4089586E296E4089587E296E4089504
:1016D0008AE296E41CCF8238910549F1B0F4813357
:1016E000910509F45CC048F48932910509F452C0AF
:1016F0008A32910509F458C008958533910509F49B
:1017000044C08933910599F00895833E910531F1E4
:1017100038F4803E910591F0823E9105B1F0089534
:10172000863E910511F1873E910541F10895209182
:1017300061022370C9F080EE90E00895209161026B
:1017400020FF12C089E390E008952091610222FFFA
:101750000BC024FF2EC090E080E00895209161022C
:1017600022FD2AC024FDF7CF08952091610223FFB6
:10177000FBCF24FDF0CF87EE90E008952091610229
:1017800023FFF0CF86EE90E008952091610225FDC1
:1017900016C008952091610225FD14C0089520917E
:1017A000610226FD12C008952091610226FD10C03D
:1017B000089583EE90E0089582EE90E0089589E226
:1017C00090E0089585E390E008958AE290E008951E
:1017D00081E390E0C9CF08950F931F93CF938C01BD
:1017E000FB018281811106C0C1E08C2FCF911F9136
:1017F0000F910895C0914F01C11125C005311047C7
:1018000099F70E94EB0B81E080934F010E94BF1972
:1018100090934E0180934D01109242011092440129
:101820001092430110924601109245011092480116
:101830001092470110924A011092490110924C01F6
:1018400010924B01D2CF80914D0190914E010E9498
:10185000CB19883C910540F680914201E82FF0E0D9
:10186000EE0FFF1FED5BFE4F118300838F5F8093B0
:101870004201C0E0BACF0C9478080C94790885B77F
:10188000806885BF85B7806885BFA3E1B1E061E06E
:1018900070E08D91E82FE295EF70F0E041A18F703C
:1018A0009B0101C0220F8A95EAF7922F909594230D
:1018B00091A382A1822B82A381E0AB31B80749F7C3
:1018C000ABE1B1E061E070E08D91E82FE295EF705F
:1018D000F0E041A18F709B0101C0220F8A95EAF7C9
:1018E000922F9095942391A382A1822B82A381E0D1
:1018F000A932B80749F7EEE5F1E0A0E5B1E08CE6E2
:1019000091E011921D928E179F07D9F70C94D2097E
:101910002F923F925F926F927F928F929F92AF929F
:10192000BF92CF92DF92EF92FF920F931F93CF93CC
:10193000DF9393E1E92E91E0F92E312C212CCC2478
:10194000C394D12CBB24B394D7018D917D01E82F92
:10195000E295EF70F0E091A18F70A60101C0440FF5
:101960008A95EAF7892F842B81A392A1A42EA094B3
:101970009A2192A3B0EABA95F1F7C601022C01C0F0
:10198000880F0A94EAF7682E782E709400E511E02B
:101990006BE171E0D80130E05C90EB012991BE0170
:1019A000822E82948FE08822912CE40188A190E01D
:1019B0002F7002C0959587952A95E2F780FD51C05A
:1019C000862D85298C938C91581231E01196D1E0A7
:1019D00069327D0709F781A18A2181A382A1482B61
:1019E00042A3332341F0B0926C010E94BF1990933F
:1019F0006E0180936D01EFEF2E1A3E0AF8E02F166C
:101A0000310409F0A1CF80916C018823A9F0809165
:101A10006D0190916E010E94CB19069768F0EEE57A
:101A2000F1E08EE591E0D8012D918D0121938A1787
:101A30009B07C9F710926C010E94D40981E0DF91E5
:101A4000CF911F910F91FF90EF90DF90CF90BF90BB
:101A5000AF909F908F907F906F905F903F902F906E
:101A60000895872D8521AECFE82FF0E0E25AFE4F92
:101A7000808108950895909374018093730108956F
:101A8000E0917301F0917401309721F00190F081A1
:101A9000E02D099480E00895E0917301F0917401C4
:101AA000309721F00280F381E02D09940895E091B0
:101AB0007301F0917401309721F00480F581E02DDD
:101AC0000994089520917101309172012817390706
:101AD00071F09093720180937101E0917301F09124
:101AE0007401309721F00680F781E02D0994089564
:101AF00020916F01309170012817390771F0909390
:101B0000700180936F01E0917301F091740130973F
:101B100021F00084F185E02D0994089508950C9436
:101B20008E0D0E94B6190E943F0C0C947F1ABF9232
:101B3000CF92DF92EF92FF920F931F93CF93DF9399
:101B4000CDB7DEB72A970FB6F894DEBF0FBECDBF74
:101B50000E94880C86E7C82E81E0D82E10E000E0B5
:101B6000B02E802F0E94340DE82EF601F1906F0107
:101B7000F81609F45AC08091300281FD0E943A0D96
:101B800090E080E0FE242F2D30E0482FB901082E90
:101B900002C0759567950A94E2F760FF41C08E8395
:101BA000BF8281E090E06C0102C0CC0CDD1C4A9544
:101BB000E2F72E2D30E02C213D21232B09F480E08B
:101BC00088870E94BF198160782F9A8789874E8104
:101BD0005F8168858A850E943C0EF801EA58FE4FB5
:101BE00080818C2580830E94021D0E94400D90916F
:101BF0007501891789F10E94400D809375012A961D
:101C00000FB6F894DEBF0FBECDBFDF91CF911F910D
:101C10000F91FF90EF90DF90CF90BF900C94D80978
:101C200001968830910509F0B0CF0F5F1F4F0E303D
:101C3000110509F095CF8FEF89838A831B820E945B
:101C4000BF198160782F9D838C8349815A816B8174
:101C50008D810E943C0EC7CF2A960FB6F894DEBF46
:101C60000FBECDBFDF91CF911F910F91FF90EF90ED
:101C7000DF90CF90BF900895CF93DF93CDB7DEB7BD
:101C80002B970FB6F894DEBF0FBECDBF4F8358879A
:101C900069877A878B871E821D8285E0FE013796D1
:101CA000DE01119601900D928A95E1F749815A81E2
:101CB0006B817C818D819E812B960FB6F894DEBF5F
:101CC0000FBECDBFDF91CF910C94B914882309F4D6
:101CD000D8C0823871F40E94400D81FDD2C089E3E2
:101CE0000E940E180E94D61889E30E944B180C948B
:101CF000D618833859F40E94400D80FDC2C083E598
:101D00000E940E180E94D61883E5EFCF843859F44C
:101D10000E94400D82FDB5C087E40E940E180E940B
:101D2000D61887E4E2CF9CEF980F913A18F40E94FE
:101D30000E18DDCF90E2980F983050F4877091E044
:101D400001C0990F8A95EAF7892F0E948D18CFCF8D
:101D50009BE5980F933070F4853A31F0863A39F06C
:101D600083E890E00C94620D81E890E0FBCF82E87C
:101D700090E0F8CF98E5980F953108F082C0883A46
:101D800009F440C0893A09F440C08A3A09F440C0D5
:101D90008B3A09F440C08C3A09F440C08B3B09F4FB
:101DA00040C08C3B09F440C08D3A09F440C0803BF0
:101DB00009F440C08E3A09F440C08F3A09F440C09B
:101DC000813B09F440C0823B09F440C0833B09F4E5
:101DD00040C0843B09F440C0853B09F440C0863BC9
:101DE00009F440C0873B09F440C0883B09F440C077
:101DF000893B09F440C08A3B09F440C090E080E090
:101E00000C94780D82EE90E0FBCF89EE90E0F8CF55
:101E10008AEE90E0F5CF85EB90E0F2CF86EB90E094
:101E2000EFCF83EB90E0ECCF84EB90E0E9CF87EB52
:101E300090E0E6CF8CEC90E0E3CF8DEC90E0E0CF4B
:101E400083E891E0DDCF8AE891E0DACF82E991E0A2
:101E5000D7CF84E991E0D4CF81E292E0D1CF83E281
:101E600092E0CECF84E292E0CBCF85E292E0C8CF81
:101E700086E292E0C5CF87E292E0C2CF8AE292E0AA
:101E8000BFCF0895882309F44BC0823871F40E94B3
:101E9000400D81FF45C089E30E940E180E94D618AC
:101EA00089E30E944B180C94D618833859F40E9489
:101EB000400D80FF35C083E50E940E180E94D618A1
:101EC00083E5EFCF843859F40E94400D82FF28C08B
:101ED00087E40E940E180E94D61887E4E2CF9CEF98
:101EE000980F913AF0F290E2980F983050F4877082
:101EF00091E001C0990F8A95EAF7892F0E94931803
:101F0000D2CF9BE5980F933020F490E080E00C94C2
:101F1000620D885A853120F490E080E00C94780DB1
:101F20000895882321F00E948D180C94D6180895E6
:101F3000882321F00E9493180C94D61808958F924C
:101F40009F92AF92BF92DF92EF92FF920F931F93F7
:101F5000CF93DF937C01D62FC72FFC01058102951B
:101F60000F70128111110E94AC180E940718D82E10
:101F7000882371F0112321F180E28D0F883000F168
:101F800082E00E94F1170E94071891E0D82ED9260E
:101F9000EC2FE295EF70F0E0E053F04F0C94DE256B
:101FA000E20FE20F32103210741090100F100F1069
:101FB0009B100F1033113311A6110F100F10AF111A
:101FC000D12CE6CF0C2F0F70C07F11F00295007F4F
:101FD0001123A9F0002359F080E28D0F883010F012
:101FE000D11109C0802F0E948D180E94D6188D2F04
:101FF0000E94660E14C0802F0E949E18F6CF8D2F6F
:102000000E94420F002359F080E28D0F883010F0BB
:10201000D11124C0802F0E9493180E94D618DD2071
:1020200009F4A4C10E94E41780FDA0C1F701128247
:102030000E94DE170E945816C7010E94C2110E941A
:10204000DE17DF91CF911F910F91FF90EF90DF90FE
:10205000BF90AF909F908F900C947916802F0E9424
:10206000A418DBCFFC2FFF70BF2EC07FC03219F049
:10207000B29480EFB822DD2369F0D13029F1112329
:1020800069F1002359F0F701858180FFB0CF8F708F
:10209000858304C0112361F0011104C08B2D0E94BF
:1020A000910FBDCF8B2D0130D1F70E94C018B7CF53
:1020B000011106C00E94C3188B2D0E94980FAFCF4C
:1020C000013009F4ACCFF6CF112321F0063008F02F
:1020D000A6CFE4CF053008F0A2CFEECF002361F306
:1020E0008D2F0E94420F9BCF8C2F869586958370F3
:1020F00069F0813009F093CF8D2F9C2F93701111CF
:1021000002C090E080E00E94780D89CF8D2F9C2F37
:102110009370111102C090E080E00E94620D7FCFA9
:102120008D2F112329F00E940B1C0E94F71C77CFE2
:102130000E94731CFACF8C2F837009F047C01111D5
:102140006ECF2D2F229526952770220F220F6D2FEF
:102150006F70862E912CB12CA12C022E04C0880CFD
:10216000991CAA1CBB1C0A94D2F760E070E0CB015A
:10217000D4FF0FC06FE070E080E090E004C0660F15
:10218000771F881F991F2A95D2F7609570958095C3
:102190009095C695C695C370C23051F080F46829F9
:1021A00079298A299B29C13071F00E94011637CF05
:1021B000682979298A299B290E941D1630CF0E94FF
:1021C0000116C501B4010E94E51529CF869511239A
:1021D00011F08C2F8170882309F421CF2D2F2295A7
:1021E00026952770220F220F6D2F6F70862E912C4F
:1021F000B12CA12C022E04C0880C991CAA1CBB1C5B
:102200000A94D2F760E070E0CB01D4FF0FC06FE01A
:1022100070E080E090E004C0660F771F881F991F70
:102220002A95D2F76095709580959095C695C6953C
:10223000C370C23051F080F4682979298A299B291A
:10224000C13071F00E94DB16EACE682979298A290B
:102250009B290E94F716E3CE0E94DB16C501B4014C
:102260000E94BF16DCCEE0E2ED0FE53108F062C05F
:10227000F0E0E35CFE4E0C94DE2552115211521137
:102280005211521152115211521152115211521136
:10229000521152115211521152115F116D117411DC
:1022A0007B118511DF708C2F8F71112321F00E941B
:1022B00058168D2FF4CE0E9479168D2FFECE112345
:1022C00041F0053008F0ABCE8C2F8F710E949E1626
:1022D000A6CE063008F0A3CEF7CF8C2F8F71112336
:1022E00039F00E9458169BCE8C2F8F711123C9F3A1
:1022F0000E94791694CE112329F08C2F8F710E94A1
:1023000043168DCE0E9439168ACE112349F0CF7123
:102310008C2F0E94581663E08C2F0E94E8177FCE06
:1023200081E00E94F117023008F479CE82E00E9429
:10233000F11775CE112329F0011159CE8C2F8F7111
:10234000D0CF0111CDCE8C2F8F71D2CF4C2F4F70AB
:102350006D2FC7010E9475080E94621560CE4C2F38
:102360004F706D2FC7010E94DA0959CEDF91CF91CE
:102370001F910F91FF90EF90DF90BF90AF909F90D3
:102380008F9008950F931F93CF93DF93EC01988163
:1023900089812B813C81232B39F08F3F19F481E017
:1023A0009F3F19F080E001C081E080FD17C0CE01A1
:1023B0000E949408882391F0688179818A810E9423
:1023C000BA178C010E9413170E94DA15B801CE01CA
:1023D000DF91CF911F910F910C949F0FDF91CF91BF
:1023E0001F910F9108950E94AC180E94BD180E9481
:1023F0007F180E94D6180E94A41D0E94F71C90E02E
:1024000080E00E94620D90E080E00C94780D0E94C4
:102410009B180C94F3110E94B017E92FE295EF700E
:10242000E250EE30E0F4F0E0E85EFD4E0C94DE2584
:10243000261226122F122F1231122F122F122F12A4
:102440002612261236122F122F123612803F19F042
:1024500020F4803E20F481E00895843FE1F380E0A1
:102460000895803EC0F3813FD1F7F5CF93FB8827D5
:1024700080F90895CF93DF9300D000D01F92CDB79D
:10248000DEB70F900F900F900F900F90DF91CF91CC
:102490000895CF93DF9300D000D000D0CDB7DEB742
:1024A00026960FB6F894DEBF0FBECDBFDF91CF9159
:1024B00008951F93CF93DF93C091850116E080911B
:1024C00086018C1304C0DF91CF911F910895D0E055
:1024D0001C9FF0011D9FF00D1124E957FE4F408114
:1024E000518162817381848195810E944912219674
:1024F000C770E5CF4091B7015091B8016091B90123
:102500007091BA018091BB019091BC010C94491269
:102510001F93CF93DF938091BC01807FD1F4809192
:10252000B9018823B1F080918501D0918601B091E5
:10253000B701C091B8014091BA015091BB01A1E02F
:10254000BF3F09F0A0E0BA016095709516E0D8137E
:1025500004C0DF91CF911F91089521E041155105ED
:1025600021F02A2FCF3F09F020E090E020FD38C075
:10257000189FF001199FF00D1124E957FE4F21819A
:102580002C132EC020812B132BC02281211128C097
:10259000238134812417350700F1241B350B283C97
:1025A0003105F0F42091BC012F7020612093BC0113
:1025B00026E0289FF001299FF00D1124E457FE4FDB
:1025C00080818F708061808387EB91E00E94C211CF
:1025D000DF91CF911F910C945912260F371FDFCF37
:1025E00001968770B4CFAF92BF92CF92DF92EF92F5
:1025F000FF920F931F93CF93DF93CDB7DEB7619711
:102600000FB6F894DEBF0FBECDBF8C0185E0F80198
:10261000DE011D9601900D928A95E1F7D8014C914B
:1026200011965C9111971296EC903091B7016091E0
:10263000B8018091BA019091BB0121E0009731F07F
:102640006F3F19F421E03F3F09F020E0B22FB17055
:10265000BB2E20FD80C1F801C380D480A090B901B9
:10266000AA2009F427C1C816D906D0F1D601A81BA3
:10267000B90BCD01FF24F394883C910508F0F12CAF
:102680008091BC01982F907FFF2009F4CAC091115E
:1026900087C0FE2C651329C0341327C0E11025C064
:1026A0008F7080618093BC010E947A1287EB91E069
:1026B0000E94C2118091BC01F80185838F2D619623
:1026C0000FB6F894DEBF0FBECDBFDF91CF911F9143
:1026D0000F91FF90EF90DF90CF90BF90AF90089553
:1026E000809590958C0D9D1DC5CF81E0CD2831F052
:1026F0005F3F19F481E04F3F09F080E080FD24C086
:1027000081E08E25F82FF170DF2E80FF3FC0809191
:1027100085012091860136E0821318C04D875E87BF
:102720008D859E850E94B017292F22952F7022300B
:1027300008F1243030F59F7009F1D80115969C916D
:10274000907FE1F4FB2CBACF80E0DCCF90E0389FA3
:10275000F001399FF00D1124E957FE4F61815613A6
:1027600006C06081461303C062816E110FC00196DE
:102770008770D2CF9F7011F0882321F3805E88305C
:1027800008F3C8010E94C211BD2CDCCFEE2009F471
:1027900095CF8091BC0181608093BC01F12C8ECFDC
:1027A000651312C0341310C0E1100EC0F801858308
:1027B000C8010E94C21186E0F801A7EBB1E00190C8
:1027C0000D928A95E1F741C04D875E878D859E8584
:1027D0000E940B12882309F4C8C0EE2009F4C5C07A
:1027E0008091BC01803270F02091B7013091B80126
:1027F00038872F831986DB86CA868C87CE01079699
:102800000E94C21186E0F801A7EBB1E001900D92A1
:102810008A95E1F70E9488120E947A12FF24F394AD
:102820004DCF911115C07C2DD98AC88A6E2D89890A
:102830000E943A1287EB91E00E94C21186E0E7EB1A
:10284000F1E0DF011D928A95E9F70E947A1236CFF6
:10285000651312C0341310C0E1100EC0F801858357
:10286000C8010E94C211E7EBF1E086E0DF011D9292
:102870008A95E9F7FA2C22CF4D875E878D859E8554
:102880000E940B12882309F470C0EE2009F46DC079
:102890008091BC01803208F4B5CF2091B70130910E
:1028A000B8013A8329831B82DD82CC828E83CE01DC
:1028B0000196A6CFC816D90638F1F601E81BF90B28
:1028C000CF01F12C883C910508F03DC0FE2CEE2094
:1028D00009F44BC0651326C0341324C08091BC0199
:1028E00080FD17C0982F907FA1F0D80115968C938A
:1028F0001597903F09F45CCF982F907F905F8F7071
:10290000892B15968C9354CF809590958C0D9D1D99
:10291000D8CF86E0F801A7EBB1E001900D928A953F
:10292000E1F7CCCE4D875E878D859E850E940B1288
:10293000811168CF8091BC0181608093BC01C80186
:102940000E94C211BBCE7C2DD98AC88A6E2D89897E
:102950000E943A1273CFEE2041F04D875E878D853D
:102960009E850E940B1281114DCFC8010E94C21199
:1029700055CF1F93CF93DF93CDB7DEB72C970FB60C
:10298000F894DEBF0FBECDBF4F83588769877A8723
:102990008B879C87CE0107960E94F312882309F447
:1029A00042C09F8188852A853B85232B39F08F3F44
:1029B00019F481E09F3F19F080E001C081E080FDC3
:1029C00008C04F81588569857A858B859C850E94D2
:1029D000491216E08091850190918601891709F4CA
:1029E00067C0819FC001112489579E4F0E94F31236
:1029F000882309F45DC0E09185011E9FF001112438
:102A0000E957FE4F408151816281738184819581B4
:102A10000E9449128091850190E001968770992764
:102A200080938501D7CF86E0FE013796DE011196AF
:102A300001900D928A95E1F79F8188852A853B85D3
:102A4000232B39F08F3F19F481E09F3F19F080E08C
:102A500001C081E080FDBDCF2091860130E0C90139
:102A6000019687709927409185014817190699F0BA
:102A700096E0929FD001939FB00D1124A957BE4FAD
:102A8000FE01319601900D929A95E1F780938601AF
:102A90000E9459129ECF0E94071210928601109236
:102AA000850186E0E7EBF1E0DF011D928A95E9F709
:102AB0002C960FB6F894DEBF0FBECDBFDF91CF913D
:102AC0001F910895EF92FF920F931F93CF93DF937F
:102AD0008C01892B81F0F12CEE24E394E8012196FE
:102AE000F8018491843770F4843008F05FC081303D
:102AF000B1F08230A1F1DF91CF911F910F91FF9042
:102B0000EF900895853709F44CC008F43DC09CE768
:102B1000980F903780F78F770E94420F49C00E5F61
:102B20001F4FFE01849190E2980F983060F48770F7
:102B3000FE2D01C0FF0F8A95EAF78F2F0E94AF1874
:102B40000E94D61802C00E94660E8F2D815030F26E
:102B5000EFE9FFE03197F1F700C00000F7CF0E5F1B
:102B60001F4FFE01849190E2980F983050F48770C7
:102B7000FE2D01C0FF0F8A95EAF78F2F0E94B5182E
:102B8000DFCF0E94420FE1CF0E5F1F4FFE01C491C5
:102B9000C150D8F28FE99FE00197F1F700C0000023
:102BA000F7CF0E5F1F4FFE01F490CFCF0E94660E4D
:102BB0008E01CBCF08956093070270930802809333
:102BC000090290930A020C94F3110F931F93009142
:102BD0000702109108022091090230910A02DC01DB
:102BE000CB01802B912BA22BB32B809307029093C8
:102BF0000802A0930902B0930A021F910F910C944E
:102C0000F3110F931F930091070210910802209176
:102C1000090230910A02DC01CB0180239123A22317
:102C2000B3238093070290930802A0930902B09304
:102C30000A021F910F910C94F3110F931F930091AF
:102C40000702109108022091090230910A02DC016A
:102C5000CB0180279127A227B32780930702909367
:102C60000802A0930902B0930A021F910F910C94DD
:102C7000F3111092030210920402109205021092B6
:102C800006020C94F31141E050E060E070E004C0F3
:102C9000440F551F661F771F8A95D2F74093030292
:102CA0005093040260930502709306020C94F31192
:102CB00041E050E060E070E004C0440F551F661F23
:102CC000771F8A95D2F78091030290910402A09118
:102CD0000502B0910602842B952BA62BB72B80936F
:102CE000030290930402A0930502B09306020C9491
:102CF000F31141E050E060E070E004C0440F551F64
:102D0000661F771F8A95D2F740955095609570950C
:102D10008091030290910402A0910502B0910602F5
:102D200084239523A623B723809303029093040260
:102D3000A0930502B09306020C94F31141E050E019
:102D400060E070E004C0440F551F661F771F8A952E
:102D5000D2F78091030290910402A0910502B091F4
:102D6000060284279527A627B7278093030290930E
:102D70000402A0930502B09306020C94F3110F9382
:102D80001F930091030210910402209105023091DB
:102D90000602DC01CB01802B912BA22BB32B80935D
:102DA000030290930402A0930502B09306021F91C0
:102DB0000F910C94F3110F931F9300910302109144
:102DC00004022091050230910602DC01CB01802330
:102DD0009123A223B3238093030290930402A09330
:102DE0000502B09306021F910F910C94F3110F93FB
:102DF0001F9300910302109104022091050230916B
:102E00000602DC01CB0180279127A227B3278093FC
:102E1000030290930402A0930502B09306021F914F
:102E20000F910C94F3110895990F990F990F890F31
:102E3000982F977071E001C0770F9A95EAF7869501
:102E40008695869525E0829FC001112450E040E0E0
:102E5000A62FB0E0FC01E40FF51FE354FE4F6081A4
:102E60009D01042E02C0369527950A94E2F7217041
:102E7000219526272723262720834F5F5F4F453044
:102E8000510541F70895990F990F990F890F982FC0
:102E9000977086958695869525E0829FA0011124DE
:102EA00070E060E080E0FA01E60FF71FE354FE4FA8
:102EB000208130E0092E02C0369527950A94E2F76A
:102EC00021703327062E01C0220F0A94EAF7822BC5
:102ED0006F5F7F4F6530710531F70895BF92CF92D4
:102EE000DF92EF92FF920F931F93CF93DF938C01AA
:102EF000C0900302D0900402E0900502F090060218
:102F00008091070290910802A0910902B0910A02F3
:102F1000C82AD92AEA2AFB2ACFE1D0E0BC2ED70161
:102F2000C6010C2E04C0B695A795979587950A946F
:102F3000D2F780FD0EC0219788F7B12C8B2DDF9141
:102F4000CF911F910F91FF90EF90DF90CF90BF90A6
:102F50000895B8018C2F0E94F809019761F3EECF14
:102F6000CF93DF93EC010E946E17BE01DF91CF91EA
:102F70000C94F8091F93CF93DF93EB019091840198
:102F8000992331F0CB01DF91CF911F910C94B017B1
:102F9000882379F0CB010E946E17182F682FCE017D
:102FA0000E941417BE01812FDF91CF911F910C94C5
:102FB000F809CB010E944317182FF4CF80910B0220
:102FC000859585958595089580910B028770089564
:102FD00098E0899F90011124622B60930B020C945E
:102FE000581690910B028095892380930B02282F0D
:102FF000277061F4282F082E000C330B921713064C
:1030000029F08595859585950C947916089590916C
:103010000B02977081E009F480E00895909112010D
:103020009923E1F09091610297FF18C0E82FE6958F
:10303000E695E695EF3139F12091000130910101DB
:10304000E20FF32FF11D877021E030E001C0220F65
:103050008A95EAF78181822B81830895209100016E
:1030600030910101F90132969FEF40E051918517AF
:1030700051F09F3F19F4511101C0942F4F5F4E3111
:10308000A9F79F3F09F40895290F311D97FD3A953F
:10309000F90182830895909112019923F1F09091A2
:1030A000610297FF1AC0E82FE695E695E695EF31A5
:1030B00029F12091000130910101E20FF32FF11D60
:1030C000282F277081E090E001C0880F2A95EAF749
:1030D0008095918189238183089520910001309109
:1030E0000101F9013296205E3F4F9191891303C08F
:1030F000DF0111971C92E217F307B9F7089581E0F9
:1031000090E0E0910001F0910101E80FF91F1082B9
:10311000019680329105A9F7089590912F02892B8D
:1031200080932F020895982F909580912F028923E4
:1031300080932F02089510922F02089590912E02ED
:10314000892B80932E020895982F909580912E02BE
:10315000892380932E02089510922E020895909153
:103160002D02892B80932D020895982F90958091A0
:103170002D02892380932D02089510922D02089527
:1031800080930C02089510920C0208952091000182
:1031900030910101F9013196205E3F4F80E091911D
:1031A00091118F5FE217F307D1F70895E0910001C5
:1031B000F091010180912F028083E0910001F09154
:1031C0000101808190912E02892B8083E091000182
:1031D000F0910101808190912D02892B8083909143
:1031E0000C02992361F0E0910001F09101018081CE
:1031F000892B80830E94C618811110920C02809145
:103200000001909101010C944C0D6DEE7EEF90E069
:1032100080E00E94182660E082E090E00E9406268E
:1032200060E083E090E00E94062660E084E090E0A9
:103230000E94062660E085E090E00C94062690E06F
:1032400080E00E94002621E08D3E9E4F09F020E0A4
:10325000822F089582E090E00C94F825682F82E098
:1032600090E00C94062683E090E00C94F825682FFB
:1032700083E090E00C94062684E090E00C94F8251E
:10328000682F84E090E00C940626809167028430D9
:1032900039F11092310288E190E020E40FB6F89401
:1032A000A895809360000FBE2093600080E00E948C
:1032B000D80983B7817F846083BF83B7816083BF70
:1032C0007894889583B78E7F83BF0FB6F894A895BE
:1032D00080916000886180936000109260000FBE52
:1032E000089508950895CF930E9471190E94880C43
:1032F0000E947219C0E08C2F0E94340D811105C00C
:10330000CF5FCE30C1F7CF91089581E0FCCF0E940E
:1033100007120E94400D0C94D8091F920F920FB60D
:103320000F9211248F939F93AF93BF93809131029B
:10333000811113C080915D0290915E02A0915F02A5
:10334000B09160024196A11DB11D80935D029093E2
:103350005E02A0935F02B0936002BF91AF919F9114
:103360008F910F900FBE0F901F90189582E084BD33
:1033700093E095BD9AEF97BD80936E0008952FB7A7
:10338000F89480915D0290915E02A0915F02B091ED
:1033900060022FBF0895CF92DF92EF92FF920F93BA
:1033A0001F932FB7F89440915D0250915E02609197
:1033B0005F02709160022FBF6A017B01EE24FF243F
:1033C0008C0130E020E0C016D106E206F30650F092
:1033D000481B590BCA011F910F91FF90EF90DF908E
:1033E000CF90089541505109F3CF1F920F920FB61D
:1033F0000F9211248F939F93AF93BF9380915D029F
:1034000090915E02A0915F02B09160020196A11DB1
:10341000B11D80935D0290935E02A0935F02B09312
:103420006002BF91AF919F918F910F900FBE0F904F
:103430001F9018950E949E21F8942FEF87EA91E63D
:10344000215080409040E1F700C0000087E090EB01
:10345000DC018093700290937102A0937202B0938A
:10346000730288E19CE00FB6F894A8958093600001
:103470000FBE90936000FFCFCF92DF92EF92FF924A
:103480000F931F93CF93C0E0E82EF12C8C2F0E9456
:10349000340D10E000E0C82ED12CC601002E02C071
:1034A000959587950A94E2F780FD11C00F5F1F4F35
:1034B0000830110591F7CF5FCE3041F780E0CF9112
:1034C0001F910F91FF90EF90DF90CF900895602FA4
:1034D0007C2F80E00E94DB09E816F90639F781E0CD
:1034E000EECFCF93C82F8CE20E943C1A882321F0A4
:1034F0008C2FCF910C943C1A80E0CF910895CF93FC
:103500000E941F19811102C00E940519C5E608C05A
:103510000E94880C8FE39CE90197F1F700C000003E
:10352000C150B1F789E20E94711A8111EFC08AE29D
:103530000E94711A81110E94051985E00E94711A7A
:1035400081110E941A1A0E942A198093300287E082
:103550000E94711A882371F08BE10E94711A8823EE
:1035600009F4B1C090913002892F8D7F91FF826064
:1035700080933002809130020E942E190E943C19E3
:1035800090E0909362028093610280EE0E94711A33
:10359000882341F090916102892F8E7F90FF816096
:1035A0008093610289E30E94711A882341F090910F
:1035B0006102892F8D7F91FF82608093610282EE8C
:1035C0000E94711A882341F090916102892F8B7FAC
:1035D00092FF84608093610286EE0E94711A8823B4
:1035E00041F090916102892F877F93FF88608093DB
:1035F000610283EE0E94711A882341F0909161026A
:10360000892F8F7E94FF80618093610285E30E9401
:10361000711A882341F090916102892F8F7D95FF67
:1036200080628093610281E30E94711A882341F0D5
:1036300090916102892F8F7B96FF80648093610255
:1036400081E10E94711A882341F090916102892FD3
:1036500097FB87F9805880936102809161020E94F4
:10366000401987E20E94711AC82F8EE10E94711AD8
:103670008111C2608FE10E94711A8111C46080E2E1
:103680000E94711A8111C86081E20E94711A811131
:10369000C06182E20E94711A8111C06283E20E94BD
:1036A000711A8111C06484E20E94711A882341F169
:1036B000C0688C2F0E9437196C2F70E090E080E07A
:1036C000CF910C94DB158EE00E94711A882339F09B
:1036D00090913002892F8B7F92FF846049CF80E1E7
:1036E0000E94711A90913002882329F0892F877FD8
:1036F00093FF88603DCF892F8E7F90FF816038CF08
:10370000C111D7CF0E943319682FD7CFCF91089519
:103710008091340280FF12C06091050185E0689FAE
:10372000B001112475956795759567956038710599
:10373000A8F561157105A1F1862F089581FF09C0D3
:103740006091050185E0689FB0011124759567952A
:10375000EDCF82FF07C06091050185E0689FB00151
:103760001124E4CF209135022223A9F09091040185
:103770006091050185E0689FB00111242917B0F61A
:10378000269FA001279F500D1124692F70E0CA01C8
:103790000E94CA25CBCF65E070E0CECF8FE70895B9
:1037A00081E008958091340280FF0CC06091030194
:1037B00070E075956795759567956115710549F187
:1037C000862F089581FF06C06091030170E0759512
:1037D0006795F3CF6091030182FD0BC09091350294
:1037E0009923A1F06091020180910301961738F0AE
:1037F000682F70E06038710500F38FE70895899FA6
:10380000C001112470E00E94CA25F4CF61E070E08D
:10381000D7CF81E00895803F31F40E94881B8195C5
:10382000809338020895813F19F40E94881BF8CFD5
:10383000823F31F40E94881B81958093370208955E
:10384000833F19F40E94881BF8CF893F29F40E9416
:10385000D21B8093390208958A3F21F40E94D21B23
:103860008195F7CF8B3F31F40E94D21B81958093D5
:103870003A0208958C3F19F40E94D21BF8CF843F7E
:1038800031F4809136028160809336020895853F3D
:1038900021F4809136028260F7CF863F21F4809137
:1038A00036028460F1CF873F21F480913602886030
:1038B000EBCF883F21F4809136028061E5CF8D3FC8
:1038C00031F48091340281608093340208958E3FF8
:1038D00021F4809134028260F7CF8F3FB9F7809155
:1038E00034028460F1CF803FC1F48091380287FDBB
:1038F000109238028091370281110EC080913802F7
:1039000081110AC080913902811106C080913A026A
:10391000811102C0109235020895813F29F48091EF
:10392000380218162CF3E6CF90913702823F29F423
:1039300097FFE0CF10923702DDCF833F19F41916BD
:10394000CCF3D8CF893F39F480913902181694F618
:1039500010923902CFCF8A3F29F48091390287FF34
:10396000C9CFF6CF8B3F39F480913A0287FFC2CF9F
:1039700010923A02BFCF8C3F29F480913A02181678
:10398000BCF3B8CF843F31F4809136028E7F8093B0
:103990003602B0CF853F21F4809136028D7FF7CF7C
:1039A000863F21F4809136028B7FF1CF873F21F44F
:1039B00080913602877FEBCF883F21F480913602D9
:1039C0008F7EE5CF8D3F31F4809134028E7F8093DE
:1039D000340290CF8E3F21F4809134028D7FF7CF57
:1039E0008F3F09F087CF809134028B7FF0CF86E341
:1039F00092E00E94570D0E94BF199093330280936A
:103A0000320208951F93CF93DF93809132029091F9
:103A100033020E94CB19AC0190913502209106012E
:103A200030E0911106C0209107018AE0289F9001A3
:103A300011244217530780F080913702C091380259
:103A400010913902D0913A0281110AC0C11178C097
:103A5000111176C0D11174C0DF91CF911F910895DB
:103A60009F3F19F09F5F90933502181624F40E942F
:103A7000881B809337028091370287FF05C00E9420
:103A8000881B8195809337021C1624F40E94881BA2
:103A9000809338028091380287FF05C00E94881BFE
:103AA00081958093380260913702662331F1C0918D
:103AB0003802CC2311F1062E000C770B880B990BE2
:103AC0000E94D12423E333E343E35FE30E943525DF
:103AD0000E949924609337026C2FCC0F770B880BD0
:103AE000990B0E94D12423E333E343E35FE30E9475
:103AF00035250E94992460933802111624F40E94FF
:103B0000D21B809339028091390287FF05C00E9441
:103B1000D21B8195809339021D1624F40E94D21B7A
:103B200080933A0280913A0287FF05C00E94D21B1F
:103B3000819580933A02DF91CF911F910C94F71CED
:103B40009F3F09F08FCFA0CF85E0E6E3F2E0DF01F1
:103B50001D928A95E9F71092350210923402089569
:103B600080915B020895CF93DF9300D01F92CDB771
:103B7000DEB79C0180916702843019F593E0998348
:103B80003B832A839093E9008FEF9091E800815066
:103B900095FD06C095ED9A95F1F700008111F5CFDE
:103BA0008091E80085FF0DC050E040E063E070E0E8
:103BB000CE0101960E940E208091E8008E778093BE
:103BC000E8000F900F900F90DF91CF910895CF9361
:103BD000DF9300D01F92CDB7DEB72091670224306B
:103BE00031F522E02983805891099B838A8383E001
:103BF0008093E9008FEF9091E800815095FD06C019
:103C000095ED9A95F1F700008111F5CF8091E800CC
:103C100085FF0DC050E040E063E070E0CE0101960A
:103C20000E940E208091E8008E778093E8000F902C
:103C30000F900F90DF91CF9108959C0180916702C2
:103C40008430F9F482E08093E9009FEF8091E800EE
:103C5000915085FD06C085ED8A95F1F70000911120
:103C6000F5CF8091E80085FF0CC050E040E065E0B2
:103C700070E0C9010E940E208091E8008E77809349
:103C8000E8000895CF93DF93EC01809167028430C0
:103C9000F1F4909112019923E9F09091610297FF5C
:103CA00019C08093E9008FEF9091E800815095FD55
:103CB00006C095E19A95F1F700008111F5CF80914A
:103CC000E80050E040E060E270E085FD1AC0DF915E
:103CD000CF91089581E08093E9008FEF9091E80003
:103CE000815095FD06C095ED9A95F1F70000811180
:103CF000F5CF8091E80085FFEACF50E040E068E032
:103D000070E0CE010E940E208091E8008E778093B3
:103D1000E80080E2FE01ABE3B2E001900D928A95EB
:103D2000E1F7D5CF80916602811109C00E949E21E2
:103D30000E94FB218091E20084608093E20008955C
:103D4000109266020895089508950C94871942E030
:103D500061EC81E00E941C2142E061EC82E00E9463
:103D60001C2142E061EC83E00E941C2142E261ECF4
:103D700084E00C941C2180916902833009F455C0C1
:103D800030F4813071F1823009F491C008958A30A5
:103D900009F47DC08B3009F463C0893009F044C058
:103DA00080916802813209F03FC080916C0290914D
:103DB0006D02009711F00397B9F58091E800877FB5
:103DC0008093E8008091E80082FF2AC08091F10092
:103DD00080935B028091E8008B778093E8000C94DD
:103DE000502180916802813AF9F48091E800877F40
:103DF0008093E80080916C0290916D02892B61F4B0
:103E000060E28BE392E070E00E945D208091E80028
:103E10008B778093E800089560E090E080E0F3CF36
:103E2000809167028111CECF089580916802813A16
:103E3000D9F780916C0290916D02892BA9F780913E
:103E4000E800877F8093E8008091E80080FFFCCF46
:103E5000809112018093F1008091E8008E77BDCFB0
:103E600080916802813201F780916C0290916D021D
:103E7000892BD1F68091E800877F8093E8000E942B
:103E8000502180916A02809312010C940712809154
:103E90006802813249F68091E800877F8093E800CC
:103EA0000E94502180916B0280935C020895809162
:103EB0006802813A09F0B8CF8091E800877F80934B
:103EC000E8008091E80080FFFCCF80915C02C2CFC7
:103ED00084B7877F84BF0FB6F894A895809160005F
:103EE000886180936000109260000FBE80E880932C
:103EF0006100109261000E948F0D0E949E210E941D
:103F0000FB218091E20084608093E20078940E941B
:103F10007D240E94910D88E091E00E943B0D8091EC
:103F20006702853019F00E94970DF9CF0E9445195C
:103F300080916502882399F30E947319882379F38D
:103F40000E94F81FECCF292F33272330310579F158
:103F500058F421303105F1F02230310519F190E0AB
:103F600080E030E020E01AC02132310599F12232A0
:103F70003105A9F7643098F770E0FB01EE0FFF1FE1
:103F8000E35DFE4F20813181675D7E4FFB018081C3
:103F900090E004C082E190E029E43FE0FA0131833F
:103FA000208308958DE690E02CED3EE0F7CF992731
:103FB0008130910561F028F0029789F6ECEAFEE085
:103FC00002C0E8EDFEE0849190E09F01E7CFE0ECD5
:103FD000FEE0F9CF643008F0C2CFE62FF0E0EE0F3C
:103FE000FF1FEB5CFE4F2081318189E090E0D6CF4E
:103FF00080E189BD82E189BD09B400FEFDCF8091D9
:10400000D8008F7D8093D8008091E00082608093FB
:10401000E0008091E00081FDFCCF0895AF92BF9257
:10402000CF92DF92FF920F931F93CF93DF936C0198
:10403000EB018A010E946F21F82E811123C0011526
:10404000110539F0F80180819181C81BD90BC80E88
:10405000D91EB12CA12C2097A9F08091E80085FDF4
:1040600022C08091E8008E778093E8000115110549
:10407000A1F0F80180819181A80EB91EB182A082C1
:1040800085E0F82E8F2DDF91CF911F910F91FF903A
:10409000DF90CF90BF90AF9008950E946F2188234A
:1040A000D1F2F82EEFCFF60181916F018093F100EC
:1040B0002197FFEFAF1ABF0ACECFFC0180916E02AD
:1040C00090916F0286179707A0F06115710529F48A
:1040D0009091E8009E779093E80090E0611571055B
:1040E00051F4911108C08091E80082FF35C080E052
:1040F0000895BC01F2CF809167028823C9F1853011
:10410000C9F18091E80083FD31C08091E80082FD13
:10411000EACF8091E80080FFE1CF2091F300809109
:10412000F200322F282F6115710519F02830310562
:1041300058F091E02830310509F090E02091E80036
:104140002E772093E800CACF81918093F1006150CF
:1041500071092F5F3F4FE7CF80916702882341F0BD
:10416000853041F08091E80083FFBDCF81E0089564
:1041700082E0089583E00895FC0180916E029091A1
:104180006F0286179707A0F06115710529F48091D9
:10419000E8008E778093E80090E06115710551F496
:1041A000911108C08091E80082FF36C080E0089538
:1041B000BC01F2CF809167028823D1F18530D1F123
:1041C0008091E80083FD32C08091E80082FDEACF53
:1041D0008091E80080FFE1CF2091F3008091F20010
:1041E000322F282F6115710519F02830310558F04C
:1041F00091E02830310509F090E08091E8008E7759
:104200008093E800CACF84918093F1003196615089
:1042100071092F5F3F4FE6CF80916702882341F0FD
:10422000853041F08091E80083FFBCCF81E00895A4
:1042300082E0089583E00895982F973028F08F70DA
:104240008093E90081E008959093E900242F762F70
:1042500050E0981731F07091EC002091ED005091F2
:10426000F00021FD02C09F5FE8CF3091EB003E7F60
:104270003093EB003091ED003D7F3093ED003091B5
:10428000EB0031603093EB007093EC002093ED0075
:104290005093F0002091EE0027FDE5CF80E00895D7
:1042A0008091680287FF13C08091E80082FF06C0FA
:1042B0008091E8008B778093E80004C080916702CA
:1042C0008111F2CF0895809167028823D9F38091FC
:1042D000E80080FFF8CF8091E8008E77ECCF209146
:1042E000E4003091E50085E69091EC0090FF06C077
:1042F0009091E80090FF06C080E008959091E8005A
:1043000092FDFACF90916702992391F0953091F048
:104310009091EB0095FD10C04091E4005091E500B4
:104320002417350709F381509A01F1F684E00895C6
:1043300082E0089583E0089581E008950E940C22B0
:104340000E941422E0EEF0E0808181608083E8ED3D
:10435000F0E080818F77808319BCA7EDB0E08C916D
:104360008E7F8C9380818F7E808310926602089569
:104370000F931F93CF93DF930E940C220E9414226D
:10438000C8EDD0E088818F778883888180688883B2
:1043900088818F7D888319BC109267021092630216
:1043A000109265021092640200EE10E0F801808124
:1043B0008B7F808388818160888342E060E080E039
:1043C0000E941C21E1EEF0E080818E7F8083E2EE8E
:1043D000F0E0808181608083808188608083F80143
:1043E00080818E7F8083888180618883DF91CF91F7
:1043F0001F910F910895E8EDF0E080818F7E80831A
:10440000E7EDF0E080818160808384E082BF81E01D
:10441000809366020C94B821E8EDF0E080818E7FF5
:1044200080831092E20008951092DA001092E10069
:1044300008951F920F920FB60F9211242F933F935E
:104440004F935F936F937F938F939F93AF93BF939C
:10445000EF93FF938091E10082FF0BC08091E20017
:1044600082FF07C08091E1008B7F8093E1000E9472
:104470007C248091DA0080FF19C08091D80080FFF1
:1044800015C08091DA008E7F8093DA008091D90088
:1044900080FF94C080E189BD82E189BD09B400FE3E
:1044A000FDCF81E0809367020E94921E8091E1001F
:1044B00080FF19C08091E20080FF15C08091E2006A
:1044C0008E7F8093E2008091E20080618093E20021
:1044D0008091D80080628093D80019BC85E08093D9
:1044E00067020E94A41E8091E10084FF29C0809190
:1044F000E20084FF25C080E189BD82E189BD09B465
:1045000000FEFDCF8091D8008F7D8093D8008091F0
:10451000E1008F7E8093E1008091E2008F7E8093A6
:10452000E2008091E20081608093E200809163026A
:10453000882309F449C084E0809367020E94A51E85
:104540008091E10083FF29C08091E20083FF25C0B4
:104550008091E100877F8093E10082E08093670291
:10456000109263028091E1008E7F8093E100809140
:10457000E2008E7F8093E2008091E2008061809370
:10458000E20042E060E080E00E941C218091F000A7
:1045900088608093F0000E94A31EFF91EF91BF916D
:1045A000AF919F918F917F916F915F914F913F91CB
:1045B0002F910F900FBE0F901F90189519BC10925D
:1045C00067020E94A01E72CF8091E30087FD02C0A7
:1045D00081E0B2CF83E0B0CF1F920F920FB60F925F
:1045E00011242F933F934F935F936F937F938F93F8
:1045F0009F93AF93BF93CF93EF93FF93C091E90045
:10460000CF708091EC001092E9008091F000877FDC
:104610008093F00078940E9428231092E900809102
:10462000F00088608093F000C093E900FF91EF9163
:10463000CF91BF91AF919F918F917F916F915F913A
:104640004F913F912F910F900FBE0F901F90189593
:104650001F93CF93DF93CDB7DEB7AA970FB6F89429
:10466000DEBF0FBECDBFE8E6F2E08091F10081939E
:1046700022E0E037F207C9F70E94BB1E8091E800F4
:1046800083FF42C080916802909169029A3008F0DD
:104690003BC0E92FF0E0E15BFC4D0C94DE25592393
:1046A0007D2384237D238423D823FA2384234F244A
:1046B0005C24803879F0823839F580916C028F70F3
:1046C0008093E9008091EB0085FB882780F91092A8
:1046D000E90006C0809164029091650291118260A8
:1046E0009091E800977F9093E8008093F1001092FA
:1046F000F1008091E8008E772DC0282F2D7F21F4C6
:104700008823D1F0823059F18091E80083FF0AC0FC
:104710008091E800877F8093E8008091EB008062C1
:104720008093EB00AA960FB6F894DEBF0FBECDBF04
:10473000DF91CF911F91089580916A02813021F716
:10474000933009F080E0809365021092E900809137
:10475000E800877F8093E8000E945021D5CF8091A8
:104760006A028111F2CF80916C028F7069F280939E
:10477000E9002091EB0020FFE8CF933031F48091E5
:10478000EB0080628093EB00E0CF9091EB009061B2
:104790009093EB0021E030E001C0220F8A95EAF708
:1047A0002093EA001092EA008091EB008860EACF43
:1047B0008111AACF10916A021F778091E30080785F
:1047C000812B8093E3008091E800877F8093E8004D
:1047D0000E9450218091E80080FFFCCF8091E3008F
:1047E00080688093E30083E0111101C082E0809330
:1047F00067028ACF8058823008F086CF80916A02A3
:1048000090916B028C3D23E09207A1F583E08A83AF
:104810008AE289834FB7F894DE01139620E03EE0E8
:1048200051E2E32FF0E050935700E49120FF03C0E2
:10483000E295EF703F5FEF708E2F90E0EA30C0F0AE
:10484000C7968D939D932F5F243159F74FBF809169
:10485000E800877F8093E8006AE270E0CE0101966D
:104860000E945D208091E8008B778093E8004CCF18
:10487000C096E7CFAE014F5F5F4F60916C020E9420
:10488000A31FBC01892B09F43FCF9091E800977FCB
:104890009093E80089819A810E94BC20E3CF803800
:1048A00009F032CF8091E800877F8093E800809103
:1048B00063028093F1001DCF811126CF90916A028F
:1048C000923008F021CF8091E800877F8093E80044
:1048D000909363020E94502180916302882331F0FB
:1048E00084E0809367020E94A71E0ECF8091E300B0
:1048F00087FDF6CF81E0F5CF0895CF9380916702D1
:10490000882399F0C091E900CF708091EC0080FD80
:104910000EC080E0C82B1092E9008091E80083FD72
:104920000E942823CF70C093E900CF91089580E8BA
:10493000F1CF0E94A0246894B1110C942F25089502
:104940000E94142588F09F5798F0B92F9927B751E6
:10495000B0F0E1F0660F771F881F991F1AF0BA9523
:10496000C9F714C0B13091F00E942E25B1E008952E
:104970000C942E25672F782F8827B85F39F0B93F20
:10498000CCF3869577956795B395D9F73EF49095D6
:104990008095709561957F4F8F4F9F4F0895E89454
:1049A00009C097FB3EF490958095709561957F4F77
:1049B0008F4F9F4F9923A9F0F92F96E9BB27939525
:1049C000F695879577956795B795F111F8CFFAF435
:1049D000BB0F11F460FF1BC06F5F7F4F8F4F9F4F66
:1049E00016C0882311F096E911C0772321F09EE8C4
:1049F000872F762F05C0662371F096E8862F70E02A
:104A000060E02AF09A95660F771F881FDAF7880F03
:104A10009695879597F9089557FD9058440F551F1F
:104A200059F05F3F71F04795880F97FB991F61F030
:104A30009F3F79F087950895121613061406551FA7
:104A4000F2CF4695F1DF08C0161617061806991F13
:104A5000F1CF86957105610508940895E894BB2708
:104A600066277727CB0197F908950E9448250C9473
:104A7000B9250E94AB2538F00E94B22520F095237D
:104A800011F00C94A2250C94A82511240C942F2528
:104A90000E940C2570F3959FC1F3950F50E0551FB0
:104AA000629FF001729FBB27F00DB11D639FAA2783
:104AB000F00DB11DAA1F649F6627B00DA11D661FD2
:104AC000829F2227B00DA11D621F739FB00DA11DF3
:104AD000621F839FA00D611D221F749F3327A00DAD
:104AE000611D231F849F600D211D822F762F6A2F49
:104AF00011249F5750409AF0F1F088234AF0EE0FAE
:104B0000FF1FBB1F661F771F881F91505040A9F7DA
:104B10009E3F510580F00C94A2250C942F255F3FF9
:104B2000E4F3983ED4F3869577956795B795F79516
:104B3000E7959F5FC1F7FE2B880F911D969587958E
:104B400097F9089597F99F6780E870E060E008950D
:104B50009FEF80EC089500240A9416161706180695
:104B60000906089500240A94121613061406050671
:104B70000895092E0394000C11F4882352F0BB0F02
:104B800040F4BF2B11F460FF04C06F5F7F4F8F4F65
:104B90009F4F089597FB072E16F4009407D077FDDA
:104BA00009D00E94E42507FC05D03EF4909581953C
:104BB0009F4F0895709561957F4F0895EE0FFF1FE9
:104BC0000590F491E02D0994AA1BBB1B51E107C08D
:104BD000AA1FBB1FA617B70710F0A61BB70B881F8D
:104BE000991F5A95A9F780959095BC01CD0108951C
:104BF000F999FECF92BD81BDF89A992780B50895A5
:104C0000A8E1B0E042E050E00C942026262FF9996C
:104C1000FECF92BD81BDF89A019700B4021639F01B
:104C20001FBA20BD0FB6F894FA9AF99A0FBE0895EC
:104C30000196272F0E9407260C940626DC01CB0143
:104C4000FC01F999FECF06C0F2BDE1BDF89A31969C
:104C500000B40D9241505040B8F70895F894FFCF3A
:104C60000D022808140A321EB01D421E1D1EE71D2B
:104C7000B31D01F767F6F5F4F1F03331323092915C
:104C80009093946697C6343536404D36391710CA1E
:0E4C90000F940F5B0FEE0E070F200F390F0071
:00000001FF
